{
  "contractName": "PointInPolygon",
  "abi": [
    {
      "constant": true,
      "inputs": [],
      "name": "MAX_LATITUDE",
      "outputs": [
        {
          "name": "",
          "type": "int32"
        }
      ],
      "payable": false,
      "stateMutability": "view",
      "type": "function"
    },
    {
      "constant": true,
      "inputs": [],
      "name": "MIN_LATITUDE",
      "outputs": [
        {
          "name": "",
          "type": "int32"
        }
      ],
      "payable": false,
      "stateMutability": "view",
      "type": "function"
    },
    {
      "constant": true,
      "inputs": [],
      "name": "MAX_LONGITUDE",
      "outputs": [
        {
          "name": "",
          "type": "int32"
        }
      ],
      "payable": false,
      "stateMutability": "view",
      "type": "function"
    },
    {
      "constant": true,
      "inputs": [],
      "name": "MIN_LONGITUDE",
      "outputs": [
        {
          "name": "",
          "type": "int32"
        }
      ],
      "payable": false,
      "stateMutability": "view",
      "type": "function"
    },
    {
      "constant": false,
      "inputs": [
        {
          "name": "vertx",
          "type": "int256[]"
        },
        {
          "name": "verty",
          "type": "int256[]"
        },
        {
          "name": "testx",
          "type": "int256"
        },
        {
          "name": "testy",
          "type": "int256"
        }
      ],
      "name": "point_in_polygon",
      "outputs": [
        {
          "name": "",
          "type": "bool"
        }
      ],
      "payable": false,
      "stateMutability": "nonpayable",
      "type": "function"
    },
    {
      "constant": false,
      "inputs": [
        {
          "name": "pointP1",
          "type": "int256[2]"
        },
        {
          "name": "pointQ1",
          "type": "int256[2]"
        },
        {
          "name": "pointP2",
          "type": "int256[2]"
        },
        {
          "name": "pointQ2",
          "type": "int256[2]"
        }
      ],
      "name": "doIntersect",
      "outputs": [
        {
          "name": "",
          "type": "bool"
        }
      ],
      "payable": false,
      "stateMutability": "nonpayable",
      "type": "function"
    }
  ],
  "bytecode": "0x608060405234801561001057600080fd5b50610e77806100206000396000f3fe608060405234801561001057600080fd5b50600436106100625760003560e01c80634485e7c2146100675780634506c0641461008b57806367d82c9a146101cc578063d114b056146101f0578063ecd2cb0e14610214578063fc2914851461038c575b600080fd5b61006f6103b0565b604051808260030b60030b815260200191505060405180910390f35b6101b260048036036101008110156100a257600080fd5b8101908080604001906002806020026040519081016040528092919082600260200280828437600081840152601f19601f820116905080830192505050505050919291929080604001906002806020026040519081016040528092919082600260200280828437600081840152601f19601f820116905080830192505050505050919291929080604001906002806020026040519081016040528092919082600260200280828437600081840152601f19601f820116905080830192505050505050919291929080604001906002806020026040519081016040528092919082600260200280828437600081840152601f19601f82011690508083019250505050505091929192905050506103b8565b604051808215151515815260200191505060405180910390f35b6101d46104cc565b604051808260030b60030b815260200191505060405180910390f35b6101f86104f0565b604051808260030b60030b815260200191505060405180910390f35b6103726004803603608081101561022a57600080fd5b810190808035906020019064010000000081111561024757600080fd5b82018360208201111561025957600080fd5b8035906020019184602083028401116401000000008311171561027b57600080fd5b919080806020026020016040519081016040528093929190818152602001838360200280828437600081840152601f19601f820116905080830192505050505050509192919290803590602001906401000000008111156102db57600080fd5b8201836020820111156102ed57600080fd5b8035906020019184602083028401116401000000008311171561030f57600080fd5b919080806020026020016040519081016040528093929190818152602001838360200280828437600081840152601f19601f82011690508083019250505050505050919291929080359060200190929190803590602001909291905050506104f8565b604051808215151515815260200191505060405180910390f35b610394610b1f565b604051808260030b60030b815260200191505060405180910390f35b63055d4a8081565b6000806103c6868686610b43565b905060006103d5878786610b43565b905060006103e486868a610b43565b905060006103f387878a610b43565b90508284141580156104055750808214155b156104175760019450505050506104c4565b60008414801561042e575061042d89888a610c12565b5b156104405760019450505050506104c4565b600083148015610457575061045689878a610c12565b5b156104695760019450505050506104c4565b600082148015610480575061047f878a88610c12565b5b156104925760019450505050506104c4565b6000811480156104a957506104a8878988610c12565b5b156104bb5760019450505050506104c4565b60009450505050505b949350505050565b7ffffffffffffffffffffffffffffffffffffffffffffffffffffffffffaa2b58081565b630aba950081565b60006002855111610554576040517f08c379a000000000000000000000000000000000000000000000000000000000815260040180806020018281038252602c815260200180610dee602c913960400191505060405180910390fd5b60028451116105ae576040517f08c379a000000000000000000000000000000000000000000000000000000000815260040180806020018281038252602c815260200180610dc2602c913960400191505060405180910390fd5b8351855114610608576040517f08c379a0000000000000000000000000000000000000000000000000000000008152600401808060200182810382526029815260200180610e1a6029913960400191505060405180910390fd5b63055d4a8060030b831315801561064257507ffffffffffffffffffffffffffffffffffffffffffffffffffffffffffaa2b58060030b8312155b610697576040517f08c379a0000000000000000000000000000000000000000000000000000000008152600401808060200182810382526021815260200180610da16021913960400191505060405180910390fd5b630aba950060030b82131580156106d157507ffffffffffffffffffffffffffffffffffffffffffffffffffffffffff5456b0060030b8212155b610726576040517f08c379a0000000000000000000000000000000000000000000000000000000008152600401808060200182810382526022815260200180610d7f6022913960400191505060405180910390fd5b60008551905060008090505b818110156108195763055d4a8060030b87828151811061074e57fe5b60200260200101511315801561079a57507ffffffffffffffffffffffffffffffffffffffffffffffffffffffffffaa2b58060030b87828151811061078f57fe5b602002602001015112155b61080c576040517f08c379a000000000000000000000000000000000000000000000000000000000815260040180806020018281038252601c8152602001807f7665727478206c61746974756465206f7574206f662072616e67652e0000000081525060200191505060405180910390fd5b8080600101915050610732565b5060008090505b8181101561090757630aba950060030b86828151811061083c57fe5b60200260200101511315801561088857507ffffffffffffffffffffffffffffffffffffffffffffffffffffffffff5456b0060030b86828151811061087d57fe5b602002602001015112155b6108fa576040517f08c379a000000000000000000000000000000000000000000000000000000000815260040180806020018281038252601d8152602001807f7665727479206c6f6e676974756465206f7574206f662072616e67652e00000081525060200191505060405180910390fd5b8080600101915050610820565b50600080905060008090506000809050600092505b83831015610b105760008314156109385760018403915061093f565b6001830391505b87838151811061094b57fe5b602002602001015188838151811061095f57fe5b60200260200101511315610a3a578588838151811061097a57fe5b60200260200101511315158689858151811061099257fe5b602002602001015113151514158015610a2b575060008884815181106109b457fe5b602002602001015187038a85815181106109ca57fe5b60200260200101518b85815181106109de57fe5b602002602001015103028985815181106109f457fe5b60200260200101518a8581518110610a0857fe5b6020026020010151038b8681518110610a1d57fe5b60200260200101518a030203125b15610a3557801590505b610b03565b85888381518110610a4757fe5b602002602001015113151586898581518110610a5f57fe5b602002602001015113151514158015610af857506000888481518110610a8157fe5b602002602001015187038a8581518110610a9757fe5b60200260200101518b8581518110610aab57fe5b60200260200101510302898581518110610ac157fe5b60200260200101518a8581518110610ad557fe5b6020026020010151038b8681518110610aea57fe5b60200260200101518a030203135b15610b0257801590505b5b828060010193505061091c565b80945050505050949350505050565b7ffffffffffffffffffffffffffffffffffffffffffffffffffffffffff5456b0081565b60008083600160028110610b5357fe5b602002015183600160028110610b6557fe5b60200201510385600060028110610b7857fe5b602002015185600060028110610b8a57fe5b6020020151030284600060028110610b9e57fe5b602002015184600060028110610bb057fe5b60200201510386600160028110610bc357fe5b602002015186600160028110610bd557fe5b602002015103020390506000811415610bf2576000915050610c0b565b6000811315610c05576001915050610c0b565b60029150505b9392505050565b6000610c4084600060028110610c2457fe5b602002015183600060028110610c3657fe5b6020020151610d46565b84600060028110610c4d57fe5b602002015113158015610c9c5750610c8784600060028110610c6b57fe5b602002015183600060028110610c7d57fe5b6020020151610d62565b83600060028110610c9457fe5b602002015112155b8015610ce45750610ccf84600160028110610cb357fe5b602002015183600160028110610cc557fe5b6020020151610d46565b83600160028110610cdc57fe5b602002015113155b8015610d2c5750610d1784600160028110610cfb57fe5b602002015183600160028110610d0d57fe5b6020020151610d62565b83600160028110610d2457fe5b602002015112155b15610d3a5760019050610d3f565b600090505b9392505050565b600081831315610d5857829050610d5c565b8190505b92915050565b600081831215610d7457829050610d78565b8190505b9291505056fe5465737420706f696e74206c6f6e676974756465206f7574206f662072616e67652e5465737420706f696e74206c61746974756465206f7574206f662072616e67652e4e756d626572206f6620592076657274696365732073686f756c6420626520677261746572207468616e20324e756d626572206f6620582076657274696365732073686f756c6420626520677261746572207468616e20324e756d626572206f66205820616e6420592076657274696365732073686f756c642062652073616d65a265627a7a7230582016628bf6956c23178cfc8db41966d422ee27b8e69f3fde3a5f2eeaea5b60e34164736f6c634300050a0032",
  "source": "pragma solidity ^0.5.10;\n\nimport \"./libs/helper.sol\";\n\ncontract PointInPolygon {\n\n    // using ArrayStorage32Lib for int32[];\n\n    //Maximum latitude value\n    int32 constant public MAX_LATITUDE = 90000000;\n    //Minimum latitude value\n    int32 constant public MIN_LATITUDE = -90000000;\n    //Maximum longitude value\n    int32 constant public MAX_LONGITUDE = 180000000;\n    //Minimum longitude value\n    int32 constant public MIN_LONGITUDE = -180000000;\n\n\n    function point_in_polygon(int[] memory vertx, int[] memory verty, int testx, int testy) public returns(bool) {\n\n        require(vertx.length > 2, \"Number of X vertices should be grater than 2\");\n        require(verty.length > 2, \"Number of Y vertices should be grater than 2\");\n        require(vertx.length == verty.length, \"Number of X and Y vertices should be same\");\n\n        // check if the test point geometry lies b/w allowed latitude, longitude values\n        require(\n            testx <= MAX_LATITUDE && testx >= MIN_LATITUDE, \n            \"Test point latitude out of range.\"\n            );\n        require(\n            testy <= MAX_LONGITUDE && testy >= MIN_LONGITUDE, \n            \"Test point longitude out of range.\"\n            );\n\n        // get the number of vertices in the polygon\n        uint nvert = vertx.length;\n\n        // check if all x vertex values lies b/w min-max latitude values\n        for (uint x=0; x<nvert; x++) {\n            require(\n            vertx[x] <= MAX_LATITUDE && vertx[x] >= MIN_LATITUDE, \n            \"vertx latitude out of range.\"\n            );\n        }\n\n        // check if all y vertex values lies b/w min-max longitude values\n        for (uint y=0; y<nvert; y++) {\n            require(\n            verty[y] <= MAX_LONGITUDE && verty[y] >= MIN_LONGITUDE, \n            \"verty longitude out of range.\"\n            );\n        }\n\n        /* \n        run the pnpoly (Point Inclusion in Polygon Test) algortihm. \n        https://wrf.ecse.rpi.edu/Research/Short_Notes/pnpoly.html\n        */\n\n        uint i = 0; \n        uint j = 0; \n        bool c = false;\n\n        for (i = 0; i<nvert; i++) {\n            if (i==0) {\n                j = nvert-1;\n            } else {\n                j = i-1;\n            }\n            if (verty[j] > verty[i]) {  \n    if ( ((verty[i]>testy) != (verty[j]>testy)) &&\n\t ((testx - vertx[i])*(verty[j]-verty[i]) - ((vertx[j]-vertx[i]) * (testy-verty[i])) < 0) ){\n         c = !c;\n     }\n    }\n    else {\n        if ( ((verty[i]>testy) != (verty[j]>testy)) &&\n\t ((testx - vertx[i])*(verty[j]-verty[i]) - ((vertx[j]-vertx[i]) * (testy-verty[i])) > 0) ){\n         c = !c;\n     }\n    }\n    }\n        return c;\n  }\n\n//     // get maximum of two numbers\n//     function max(int x, int y) public returns(int){\n//         if (x > y){\n//             return x;\n//         } else {\n//             return y;\n//         }\n//     }\n\n//     // get minimum of two numbers\n//     function min(int x, int y) public returns(int){\n//         if (x < y){\n//             return x;\n//         } else {\n//             return y;\n//         }\n//     }\n\n//     function onSegment(int[2] memory pointP, int[2] memory pointQ, int[2] memory pointR) public returns(bool) {\n//       if (pointP[0] <= max(pointP[0], pointR[0]) && pointQ[0] >= min(pointP[0], pointR[0]) &&\n//         pointQ[1] <= max(pointP[1], pointR[1]) && pointQ[1] >= min(pointP[1], pointR[1])) {\n//             return true;\n//         } else {\n//             return false;\n//         }\n//   }\n\n//     function orientation(int[2] memory pointP, int[2] memory pointQ, int[2] memory pointR) public returns(int) {\n//       int val = (pointQ[1] - pointP[1])*(pointR[0] - pointQ[0]) - (pointQ[0] - pointP[0])*(pointR[1] - pointQ[1]);\n    \n//       if (val == 0) {\n//           return 0; // colinear\n//       } else if (val > 0) {\n//           return 1; // clock wise\n//       } else {\n//           return 2; //counterclock wise\n//       }\n//     }\n\n    function doIntersect(int[2] memory pointP1, int[2] memory pointQ1, int[2] memory pointP2, int[2] memory pointQ2) \n    public returns(bool) {\n        // Find the four orientations needed for general and\n        // special cases\n        int o1 = helper.orientation(pointP1, pointQ1, pointP2);\n        int o2 = helper.orientation(pointP1, pointQ1, pointQ2);\n        int o3 = helper.orientation(pointP2, pointQ2, pointP1);\n        int o4 = helper.orientation(pointP2, pointQ2, pointQ1);\n    \n        // General case\n        if (o1 != o2 && o3 != o4) {\n            return true;\n        }\n            \n        // Special Cases\n        // p1, q1 and p2 are colinear and p2 lies on segment p1q1\n        if (o1 == 0 && helper.onSegment(pointP1, pointP2, pointQ1)) {\n            return true;\n        }\n    \n        // p1, q1 and q2 are colinear and q2 lies on segment p1q1\n        if (o2 == 0 && helper.onSegment(pointP1, pointQ2, pointQ1)) {\n            return true;\n        }\n    \n        // p2, q2 and p1 are colinear and p1 lies on segment p2q2\n        if (o3 == 0 && helper.onSegment(pointP2, pointP1, pointQ2)) {\n            return true;\n        }\n    \n        // p2, q2 and q1 are colinear and q1 lies on segment p2q2\n        if (o4 == 0 && helper.onSegment(pointP2, pointQ1, pointQ2)) {\n            return true;\n        }\n\n        return false;\n    }\n}",
  "sourcePath": "/Users/anjalishukla/PointInPolygon/contracts/pointPoly.sol",
  "compiler": {
    "name": "solc",
    "version": "0.5.10+commit.5a6ea5b1.Emscripten.clang"
  },
  "schemaVersion": "3.4.1",
  "updatedAt": "2021-06-10T16:12:18.696Z",
  "devdoc": {
    "methods": {}
  },
  "userdoc": {
    "methods": {}
  }
}